:020000040800F2
:1000000060060020190200082102000823020008EF
:10001000250200082702000829020008000000004D
:100020000000000000000000000000002B0200089B
:100030002D020008000000002F0200083102000815
:1000400033020008330200083302000833020008BC
:1000500033020008330200083302000833020008AC
:10006000330200083302000833020008330200089C
:10007000330200083302000833020008330200088C
:1000800033020008330200083302000800000000B9
:100090000000000000000000000000003302000823
:1000A000330200083302000833020008330200085C
:1000B000330200083302000833020008330200084C
:1000C000330200083302000833020008330200083C
:1000D0003302000833020008330200080000000069
:1000E0003302000833020008330200080000000059
:1000F00000000000000000000000000033020008C3
:100100000000000033020008330200083302000838
:1001100000000000000000000000000000000000DF
:1001200033020008330200083302000833020008DB
:100130003302000800000000000000000000000082
:100140000000000000000000000000003302000872
:1001500033020008330200083302000833020008AB
:100160003302000833020008000000000000000015
:10017000000000000000000000000000000000007F
:100180000000000033020008000000000000000032
:100190003302000800F002F800F02EF80AA090E800
:1001A000000C82448344AAF10107DA4501D100F032
:1001B00023F8AFF2090EBAE80F0013F0010F18BFD1
:1001C000FB1A43F001031847CC020000DC020000D8
:1001D0000023002400250026103A28BF78C1FBD850
:1001E000520728BF30C148BF0B6070471FB500F0F1
:1001F0003CF91FBD10B510BD00F050F81146FFF7D7
:10020000F5FF00F003F900F06EF803B4FFF7F2FF1A
:1002100003BC00F075F80000094880470948004712
:10022000FEE7FEE7FEE7FEE7FEE7FEE7FEE7FEE7A6
:10023000FEE7FEE704480549054A064B7047000003
:1002400051030008950100086000002060060020AE
:10025000600200206002002010B5431C02E010F88C
:10026000011B71B18107FAD14FF0013202C88C1A1B
:100270008C4314EAC211F9D0C01A0A0603D0C01E7A
:1002800010BDC01A10BD0A0401D0801E10BD0902A5
:10029000FCD0401E10BD704770477047754600F097
:1002A0002BF8AE4605006946534620F00700854608
:1002B00018B020B5FFF7BEFFBDE820404FF00006A4
:1002C0004FF000074FF000084FF0000BAC46ACE8D1
:1002D000C009ACE8C009ACE8C009ACE8C00921F02D
:1002E00007018D46704710B50446AFF300802046E5
:1002F000BDE81040FFF789BF0048704700000020AC
:1003000001491820ABBEFEE726000200704700003E
:1003100080B584B0039000200290FFE7029801901E
:100320000398FFF799FF01460198013988420DD8DB
:10033000FFE703980299405C00F082F80A2000F081
:100340004FF8FFE7029801300290E7E704B080BD64
:100350004EF68851CEF20001086840F47000086043
:100360004EF60851CEF200014FF000600860704771
:1003700080B543F64001C4F20201086840F4003041
:10038000086043F63001C4F20201086840F0010041
:1003900008600021C4F20201086840F0A000086073
:1003A0002021C4F20201086840F4E060086044F2D1
:1003B0000841C4F20001086840F2826210430860FC
:1003C00044F20C41C4F20001086840F008000860E3
:1003D000086840F400500860642000F001F880BD17
:1003E00082B00190019840F22A41484301900020D8
:1003F0000090FFE700980199884205DCFFE7FFE7DE
:10040000009801300090F5E702B0704780B582B0E7
:1004100000200190FFF7ACFFFFE740F28440C0F6F8
:100420000000FFF775FF00F005F84FF47A70FFF752
:10043000D7FFF2E780B50A2000F002F880BD000087
:1004400081B00090FFE744F20040C4F20000006871
:100450000006002801D4FFE7F5E7009844F20441C4
:10046000C4F20001086001B07047F1EE100A4FF6C7
:10047000FF71C0F2C03120EA010040F04070E1EEAF
:10048000100A704748656C6C6F20576F726C64205F
:1004900000000000A4040008000000206006000026
:0404A000D00100087F
:0400000508000219D4
:00000001FF
